{"contracts/FileStorage.sol":{"FileStorage":{"abi":[{"anonymous":false,"inputs":[{"indexed":false,"internalType":"string","name":"cid","type":"string"},{"indexed":false,"internalType":"bytes32","name":"hash","type":"bytes32"},{"indexed":true,"internalType":"address","name":"uploader","type":"address"},{"indexed":false,"internalType":"uint256","name":"ts","type":"uint256"}],"name":"Stored","type":"event"},{"inputs":[{"internalType":"string","name":"","type":"string"}],"name":"files","outputs":[{"internalType":"bytes32","name":"hash","type":"bytes32"},{"internalType":"string","name":"cid","type":"string"},{"internalType":"address","name":"uploader","type":"address"},{"internalType":"uint256","name":"ts","type":"uint256"}],"stateMutability":"view","type":"function"},{"inputs":[{"internalType":"string","name":"cid","type":"string"},{"internalType":"bytes32","name":"hash","type":"bytes32"}],"name":"store","outputs":[],"stateMutability":"nonpayable","type":"function"},{"inputs":[{"internalType":"string","name":"cid","type":"string"},{"internalType":"bytes32","name":"hash","type":"bytes32"}],"name":"verify","outputs":[{"internalType":"bool","name":"","type":"bool"}],"stateMutability":"view","type":"function"}],"evm":{"bytecode":{"linkReferences":{},"object":"608060405234801561001057600080fd5b50610c37806100206000396000f3fe608060405234801561001057600080fd5b50600436106100415760003560e01c806362e9aeba146100465780638a16984314610076578063e775576114610092575b600080fd5b610060600480360381019061005b91906104ad565b6100c5565b60405161006d9190610528565b60405180910390f35b610090600480360381019061008b91906104ad565b6100f6565b005b6100ac60048036038101906100a79190610684565b610310565b6040516100bc94939291906107b5565b60405180910390f35b600081600085856040516100da929190610831565b9081526020016040518091039020600001541490509392505050565b600073ffffffffffffffffffffffffffffffffffffffff1660008484604051610120929190610831565b908152602001604051809103902060020160009054906101000a900473ffffffffffffffffffffffffffffffffffffffff1673ffffffffffffffffffffffffffffffffffffffff16146101a8576040517f08c379a000000000000000000000000000000000000000000000000000000000815260040161019f90610896565b60405180910390fd5b604051806080016040528082815260200184848080601f016020809104026020016040519081016040528093929190818152602001838380828437600081840152601f19601f8201169050808301925050505050505081526020013373ffffffffffffffffffffffffffffffffffffffff1681526020014281525060008484604051610235929190610831565b90815260200160405180910390206000820151816000015560208201518160010190816102629190610ac2565b5060408201518160020160006101000a81548173ffffffffffffffffffffffffffffffffffffffff021916908373ffffffffffffffffffffffffffffffffffffffff160217905550606082015181600301559050503373ffffffffffffffffffffffffffffffffffffffff167feab8385f341d1b944a1b8f7f6a40af722394d90781589e6a5c6eefca8f4e7b9d848484426040516103039493929190610bc1565b60405180910390a2505050565b60008180516020810182018051848252602083016020850120818352809550505050505060009150905080600001549080600101805461034f906108e5565b80601f016020809104026020016040519081016040528092919081815260200182805461037b906108e5565b80156103c85780601f1061039d576101008083540402835291602001916103c8565b820191906000526020600020905b8154815290600101906020018083116103ab57829003601f168201915b5050505050908060020160009054906101000a900473ffffffffffffffffffffffffffffffffffffffff16908060030154905084565b6000604051905090565b600080fd5b600080fd5b600080fd5b600080fd5b600080fd5b60008083601f84011261043757610436610412565b5b8235905067ffffffffffffffff81111561045457610453610417565b5b6020830191508360018202830111156104705761046f61041c565b5b9250929050565b6000819050919050565b61048a81610477565b811461049557600080fd5b50565b6000813590506104a781610481565b92915050565b6000806000604084860312156104c6576104c5610408565b5b600084013567ffffffffffffffff8111156104e4576104e361040d565b5b6104f086828701610421565b9350935050602061050386828701610498565b9150509250925092565b60008115159050919050565b6105228161050d565b82525050565b600060208201905061053d6000830184610519565b92915050565b600080fd5b6000601f19601f8301169050919050565b7f4e487b7100000000000000000000000000000000000000000000000000000000600052604160045260246000fd5b61059182610548565b810181811067ffffffffffffffff821117156105b0576105af610559565b5b80604052505050565b60006105c36103fe565b90506105cf8282610588565b919050565b600067ffffffffffffffff8211156105ef576105ee610559565b5b6105f882610548565b9050602081019050919050565b82818337600083830152505050565b6000610627610622846105d4565b6105b9565b90508281526020810184848401111561064357610642610543565b5b61064e848285610605565b509392505050565b600082601f83011261066b5761066a610412565b5b813561067b848260208601610614565b91505092915050565b60006020828403121561069a57610699610408565b5b600082013567ffffffffffffffff8111156106b8576106b761040d565b5b6106c484828501610656565b91505092915050565b6106d681610477565b82525050565b600081519050919050565b600082825260208201905092915050565b60005b838110156107165780820151818401526020810190506106fb565b60008484015250505050565b600061072d826106dc565b61073781856106e7565b93506107478185602086016106f8565b61075081610548565b840191505092915050565b600073ffffffffffffffffffffffffffffffffffffffff82169050919050565b60006107868261075b565b9050919050565b6107968161077b565b82525050565b6000819050919050565b6107af8161079c565b82525050565b60006080820190506107ca60008301876106cd565b81810360208301526107dc8186610722565b90506107eb604083018561078d565b6107f860608301846107a6565b95945050505050565b600081905092915050565b60006108188385610801565b9350610825838584610605565b82840190509392505050565b600061083e82848661080c565b91508190509392505050565b7f416c72656164792073746f726564000000000000000000000000000000000000600082015250565b6000610880600e836106e7565b915061088b8261084a565b602082019050919050565b600060208201905081810360008301526108af81610873565b9050919050565b7f4e487b7100000000000000000000000000000000000000000000000000000000600052602260045260246000fd5b600060028204905060018216806108fd57607f821691505b6020821081036109105761090f6108b6565b5b50919050565b60008190508160005260206000209050919050565b60006020601f8301049050919050565b600082821b905092915050565b6000600883026109787fffffffffffffffffffffffffffffffffffffffffffffffffffffffffffffffff8261093b565b610982868361093b565b95508019841693508086168417925050509392505050565b6000819050919050565b60006109bf6109ba6109b58461079c565b61099a565b61079c565b9050919050565b6000819050919050565b6109d9836109a4565b6109ed6109e5826109c6565b848454610948565b825550505050565b600090565b610a026109f5565b610a0d8184846109d0565b505050565b5b81811015610a3157610a266000826109fa565b600181019050610a13565b5050565b601f821115610a7657610a4781610916565b610a508461092b565b81016020851015610a5f578190505b610a73610a6b8561092b565b830182610a12565b50505b505050565b600082821c905092915050565b6000610a9960001984600802610a7b565b1980831691505092915050565b6000610ab28383610a88565b9150826002028217905092915050565b610acb826106dc565b67ffffffffffffffff811115610ae457610ae3610559565b5b610aee82546108e5565b610af9828285610a35565b600060209050601f831160018114610b2c5760008415610b1a578287015190505b610b248582610aa6565b865550610b8c565b601f198416610b3a86610916565b60005b82811015610b6257848901518255600182019150602085019450602081019050610b3d565b86831015610b7f5784890151610b7b601f891682610a88565b8355505b6001600288020188555050505b505050505050565b6000610ba083856106e7565b9350610bad838584610605565b610bb683610548565b840190509392505050565b60006060820190508181036000830152610bdc818688610b94565b9050610beb60208301856106cd565b610bf860408301846107a6565b9594505050505056fea264697066735822122090ebd07493c121e62595cbe536507813286246d5446a9aca785dd8e04ba57b4664736f6c63430008110033","opcodes":"PUSH1 0x80 PUSH1 0x40 MSTORE CALLVALUE DUP1 ISZERO PUSH2 0x10 JUMPI PUSH1 0x0 DUP1 REVERT JUMPDEST POP PUSH2 0xC37 DUP1 PUSH2 0x20 PUSH1 0x0 CODECOPY PUSH1 0x0 RETURN INVALID PUSH1 0x80 PUSH1 0x40 MSTORE CALLVALUE DUP1 ISZERO PUSH2 0x10 JUMPI PUSH1 0x0 DUP1 REVERT JUMPDEST POP PUSH1 0x4 CALLDATASIZE LT PUSH2 0x41 JUMPI PUSH1 0x0 CALLDATALOAD PUSH1 0xE0 SHR DUP1 PUSH4 0x62E9AEBA EQ PUSH2 0x46 JUMPI DUP1 PUSH4 0x8A169843 EQ PUSH2 0x76 JUMPI DUP1 PUSH4 0xE7755761 EQ PUSH2 0x92 JUMPI JUMPDEST PUSH1 0x0 DUP1 REVERT JUMPDEST PUSH2 0x60 PUSH1 0x4 DUP1 CALLDATASIZE SUB DUP2 ADD SWAP1 PUSH2 0x5B SWAP2 SWAP1 PUSH2 0x4AD JUMP JUMPDEST PUSH2 0xC5 JUMP JUMPDEST PUSH1 0x40 MLOAD PUSH2 0x6D SWAP2 SWAP1 PUSH2 0x528 JUMP JUMPDEST PUSH1 0x40 MLOAD DUP1 SWAP2 SUB SWAP1 RETURN JUMPDEST PUSH2 0x90 PUSH1 0x4 DUP1 CALLDATASIZE SUB DUP2 ADD SWAP1 PUSH2 0x8B SWAP2 SWAP1 PUSH2 0x4AD JUMP JUMPDEST PUSH2 0xF6 JUMP JUMPDEST STOP JUMPDEST PUSH2 0xAC PUSH1 0x4 DUP1 CALLDATASIZE SUB DUP2 ADD SWAP1 PUSH2 0xA7 SWAP2 SWAP1 PUSH2 0x684 JUMP JUMPDEST PUSH2 0x310 JUMP JUMPDEST PUSH1 0x40 MLOAD PUSH2 0xBC SWAP5 SWAP4 SWAP3 SWAP2 SWAP1 PUSH2 0x7B5 JUMP JUMPDEST PUSH1 0x40 MLOAD DUP1 SWAP2 SUB SWAP1 RETURN JUMPDEST PUSH1 0x0 DUP2 PUSH1 0x0 DUP6 DUP6 PUSH1 0x40 MLOAD PUSH2 0xDA SWAP3 SWAP2 SWAP1 PUSH2 0x831 JUMP JUMPDEST SWAP1 DUP2 MSTORE PUSH1 0x20 ADD PUSH1 0x40 MLOAD DUP1 SWAP2 SUB SWAP1 KECCAK256 PUSH1 0x0 ADD SLOAD EQ SWAP1 POP SWAP4 SWAP3 POP POP POP JUMP JUMPDEST PUSH1 0x0 PUSH20 0xFFFFFFFFFFFFFFFFFFFFFFFFFFFFFFFFFFFFFFFF AND PUSH1 0x0 DUP5 DUP5 PUSH1 0x40 MLOAD PUSH2 0x120 SWAP3 SWAP2 SWAP1 PUSH2 0x831 JUMP JUMPDEST SWAP1 DUP2 MSTORE PUSH1 0x20 ADD PUSH1 0x40 MLOAD DUP1 SWAP2 SUB SWAP1 KECCAK256 PUSH1 0x2 ADD PUSH1 0x0 SWAP1 SLOAD SWAP1 PUSH2 0x100 EXP SWAP1 DIV PUSH20 0xFFFFFFFFFFFFFFFFFFFFFFFFFFFFFFFFFFFFFFFF AND PUSH20 0xFFFFFFFFFFFFFFFFFFFFFFFFFFFFFFFFFFFFFFFF AND EQ PUSH2 0x1A8 JUMPI PUSH1 0x40 MLOAD PUSH32 0x8C379A000000000000000000000000000000000000000000000000000000000 DUP2 MSTORE PUSH1 0x4 ADD PUSH2 0x19F SWAP1 PUSH2 0x896 JUMP JUMPDEST PUSH1 0x40 MLOAD DUP1 SWAP2 SUB SWAP1 REVERT JUMPDEST PUSH1 0x40 MLOAD DUP1 PUSH1 0x80 ADD PUSH1 0x40 MSTORE DUP1 DUP3 DUP2 MSTORE PUSH1 0x20 ADD DUP5 DUP5 DUP1 DUP1 PUSH1 0x1F ADD PUSH1 0x20 DUP1 SWAP2 DIV MUL PUSH1 0x20 ADD PUSH1 0x40 MLOAD SWAP1 DUP2 ADD PUSH1 0x40 MSTORE DUP1 SWAP4 SWAP3 SWAP2 SWAP1 DUP2 DUP2 MSTORE PUSH1 0x20 ADD DUP4 DUP4 DUP1 DUP3 DUP5 CALLDATACOPY PUSH1 0x0 DUP2 DUP5 ADD MSTORE PUSH1 0x1F NOT PUSH1 0x1F DUP3 ADD AND SWAP1 POP DUP1 DUP4 ADD SWAP3 POP POP POP POP POP POP POP DUP2 MSTORE PUSH1 0x20 ADD CALLER PUSH20 0xFFFFFFFFFFFFFFFFFFFFFFFFFFFFFFFFFFFFFFFF AND DUP2 MSTORE PUSH1 0x20 ADD TIMESTAMP DUP2 MSTORE POP PUSH1 0x0 DUP5 DUP5 PUSH1 0x40 MLOAD PUSH2 0x235 SWAP3 SWAP2 SWAP1 PUSH2 0x831 JUMP JUMPDEST SWAP1 DUP2 MSTORE PUSH1 0x20 ADD PUSH1 0x40 MLOAD DUP1 SWAP2 SUB SWAP1 KECCAK256 PUSH1 0x0 DUP3 ADD MLOAD DUP2 PUSH1 0x0 ADD SSTORE PUSH1 0x20 DUP3 ADD MLOAD DUP2 PUSH1 0x1 ADD SWAP1 DUP2 PUSH2 0x262 SWAP2 SWAP1 PUSH2 0xAC2 JUMP JUMPDEST POP PUSH1 0x40 DUP3 ADD MLOAD DUP2 PUSH1 0x2 ADD PUSH1 0x0 PUSH2 0x100 EXP DUP2 SLOAD DUP2 PUSH20 0xFFFFFFFFFFFFFFFFFFFFFFFFFFFFFFFFFFFFFFFF MUL NOT AND SWAP1 DUP4 PUSH20 0xFFFFFFFFFFFFFFFFFFFFFFFFFFFFFFFFFFFFFFFF AND MUL OR SWAP1 SSTORE POP PUSH1 0x60 DUP3 ADD MLOAD DUP2 PUSH1 0x3 ADD SSTORE SWAP1 POP POP CALLER PUSH20 0xFFFFFFFFFFFFFFFFFFFFFFFFFFFFFFFFFFFFFFFF AND PUSH32 0xEAB8385F341D1B944A1B8F7F6A40AF722394D90781589E6A5C6EEFCA8F4E7B9D DUP5 DUP5 DUP5 TIMESTAMP PUSH1 0x40 MLOAD PUSH2 0x303 SWAP5 SWAP4 SWAP3 SWAP2 SWAP1 PUSH2 0xBC1 JUMP JUMPDEST PUSH1 0x40 MLOAD DUP1 SWAP2 SUB SWAP1 LOG2 POP POP POP JUMP JUMPDEST PUSH1 0x0 DUP2 DUP1 MLOAD PUSH1 0x20 DUP2 ADD DUP3 ADD DUP1 MLOAD DUP5 DUP3 MSTORE PUSH1 0x20 DUP4 ADD PUSH1 0x20 DUP6 ADD KECCAK256 DUP2 DUP4 MSTORE DUP1 SWAP6 POP POP POP POP POP POP PUSH1 0x0 SWAP2 POP SWAP1 POP DUP1 PUSH1 0x0 ADD SLOAD SWAP1 DUP1 PUSH1 0x1 ADD DUP1 SLOAD PUSH2 0x34F SWAP1 PUSH2 0x8E5 JUMP JUMPDEST DUP1 PUSH1 0x1F ADD PUSH1 0x20 DUP1 SWAP2 DIV MUL PUSH1 0x20 ADD PUSH1 0x40 MLOAD SWAP1 DUP2 ADD PUSH1 0x40 MSTORE DUP1 SWAP3 SWAP2 SWAP1 DUP2 DUP2 MSTORE PUSH1 0x20 ADD DUP3 DUP1 SLOAD PUSH2 0x37B SWAP1 PUSH2 0x8E5 JUMP JUMPDEST DUP1 ISZERO PUSH2 0x3C8 JUMPI DUP1 PUSH1 0x1F LT PUSH2 0x39D JUMPI PUSH2 0x100 DUP1 DUP4 SLOAD DIV MUL DUP4 MSTORE SWAP2 PUSH1 0x20 ADD SWAP2 PUSH2 0x3C8 JUMP JUMPDEST DUP3 ADD SWAP2 SWAP1 PUSH1 0x0 MSTORE PUSH1 0x20 PUSH1 0x0 KECCAK256 SWAP1 JUMPDEST DUP2 SLOAD DUP2 MSTORE SWAP1 PUSH1 0x1 ADD SWAP1 PUSH1 0x20 ADD DUP1 DUP4 GT PUSH2 0x3AB JUMPI DUP3 SWAP1 SUB PUSH1 0x1F AND DUP3 ADD SWAP2 JUMPDEST POP POP POP POP POP SWAP1 DUP1 PUSH1 0x2 ADD PUSH1 0x0 SWAP1 SLOAD SWAP1 PUSH2 0x100 EXP SWAP1 DIV PUSH20 0xFFFFFFFFFFFFFFFFFFFFFFFFFFFFFFFFFFFFFFFF AND SWAP1 DUP1 PUSH1 0x3 ADD SLOAD SWAP1 POP DUP5 JUMP JUMPDEST PUSH1 0x0 PUSH1 0x40 MLOAD SWAP1 POP SWAP1 JUMP JUMPDEST PUSH1 0x0 DUP1 REVERT JUMPDEST PUSH1 0x0 DUP1 REVERT JUMPDEST PUSH1 0x0 DUP1 REVERT JUMPDEST PUSH1 0x0 DUP1 REVERT JUMPDEST PUSH1 0x0 DUP1 REVERT JUMPDEST PUSH1 0x0 DUP1 DUP4 PUSH1 0x1F DUP5 ADD SLT PUSH2 0x437 JUMPI PUSH2 0x436 PUSH2 0x412 JUMP JUMPDEST JUMPDEST DUP3 CALLDATALOAD SWAP1 POP PUSH8 0xFFFFFFFFFFFFFFFF DUP2 GT ISZERO PUSH2 0x454 JUMPI PUSH2 0x453 PUSH2 0x417 JUMP JUMPDEST JUMPDEST PUSH1 0x20 DUP4 ADD SWAP2 POP DUP4 PUSH1 0x1 DUP3 MUL DUP4 ADD GT ISZERO PUSH2 0x470 JUMPI PUSH2 0x46F PUSH2 0x41C JUMP JUMPDEST JUMPDEST SWAP3 POP SWAP3 SWAP1 POP JUMP JUMPDEST PUSH1 0x0 DUP2 SWAP1 POP SWAP2 SWAP1 POP JUMP JUMPDEST PUSH2 0x48A DUP2 PUSH2 0x477 JUMP JUMPDEST DUP2 EQ PUSH2 0x495 JUMPI PUSH1 0x0 DUP1 REVERT JUMPDEST POP JUMP JUMPDEST PUSH1 0x0 DUP2 CALLDATALOAD SWAP1 POP PUSH2 0x4A7 DUP2 PUSH2 0x481 JUMP JUMPDEST SWAP3 SWAP2 POP POP JUMP JUMPDEST PUSH1 0x0 DUP1 PUSH1 0x0 PUSH1 0x40 DUP5 DUP7 SUB SLT ISZERO PUSH2 0x4C6 JUMPI PUSH2 0x4C5 PUSH2 0x408 JUMP JUMPDEST JUMPDEST PUSH1 0x0 DUP5 ADD CALLDATALOAD PUSH8 0xFFFFFFFFFFFFFFFF DUP2 GT ISZERO PUSH2 0x4E4 JUMPI PUSH2 0x4E3 PUSH2 0x40D JUMP JUMPDEST JUMPDEST PUSH2 0x4F0 DUP7 DUP3 DUP8 ADD PUSH2 0x421 JUMP JUMPDEST SWAP4 POP SWAP4 POP POP PUSH1 0x20 PUSH2 0x503 DUP7 DUP3 DUP8 ADD PUSH2 0x498 JUMP JUMPDEST SWAP2 POP POP SWAP3 POP SWAP3 POP SWAP3 JUMP JUMPDEST PUSH1 0x0 DUP2 ISZERO ISZERO SWAP1 POP SWAP2 SWAP1 POP JUMP JUMPDEST PUSH2 0x522 DUP2 PUSH2 0x50D JUMP JUMPDEST DUP3 MSTORE POP POP JUMP JUMPDEST PUSH1 0x0 PUSH1 0x20 DUP3 ADD SWAP1 POP PUSH2 0x53D PUSH1 0x0 DUP4 ADD DUP5 PUSH2 0x519 JUMP JUMPDEST SWAP3 SWAP2 POP POP JUMP JUMPDEST PUSH1 0x0 DUP1 REVERT JUMPDEST PUSH1 0x0 PUSH1 0x1F NOT PUSH1 0x1F DUP4 ADD AND SWAP1 POP SWAP2 SWAP1 POP JUMP JUMPDEST PUSH32 0x4E487B7100000000000000000000000000000000000000000000000000000000 PUSH1 0x0 MSTORE PUSH1 0x41 PUSH1 0x4 MSTORE PUSH1 0x24 PUSH1 0x0 REVERT JUMPDEST PUSH2 0x591 DUP3 PUSH2 0x548 JUMP JUMPDEST DUP2 ADD DUP2 DUP2 LT PUSH8 0xFFFFFFFFFFFFFFFF DUP3 GT OR ISZERO PUSH2 0x5B0 JUMPI PUSH2 0x5AF PUSH2 0x559 JUMP JUMPDEST JUMPDEST DUP1 PUSH1 0x40 MSTORE POP POP POP JUMP JUMPDEST PUSH1 0x0 PUSH2 0x5C3 PUSH2 0x3FE JUMP JUMPDEST SWAP1 POP PUSH2 0x5CF DUP3 DUP3 PUSH2 0x588 JUMP JUMPDEST SWAP2 SWAP1 POP JUMP JUMPDEST PUSH1 0x0 PUSH8 0xFFFFFFFFFFFFFFFF DUP3 GT ISZERO PUSH2 0x5EF JUMPI PUSH2 0x5EE PUSH2 0x559 JUMP JUMPDEST JUMPDEST PUSH2 0x5F8 DUP3 PUSH2 0x548 JUMP JUMPDEST SWAP1 POP PUSH1 0x20 DUP2 ADD SWAP1 POP SWAP2 SWAP1 POP JUMP JUMPDEST DUP3 DUP2 DUP4 CALLDATACOPY PUSH1 0x0 DUP4 DUP4 ADD MSTORE POP POP POP JUMP JUMPDEST PUSH1 0x0 PUSH2 0x627 PUSH2 0x622 DUP5 PUSH2 0x5D4 JUMP JUMPDEST PUSH2 0x5B9 JUMP JUMPDEST SWAP1 POP DUP3 DUP2 MSTORE PUSH1 0x20 DUP2 ADD DUP5 DUP5 DUP5 ADD GT ISZERO PUSH2 0x643 JUMPI PUSH2 0x642 PUSH2 0x543 JUMP JUMPDEST JUMPDEST PUSH2 0x64E DUP5 DUP3 DUP6 PUSH2 0x605 JUMP JUMPDEST POP SWAP4 SWAP3 POP POP POP JUMP JUMPDEST PUSH1 0x0 DUP3 PUSH1 0x1F DUP4 ADD SLT PUSH2 0x66B JUMPI PUSH2 0x66A PUSH2 0x412 JUMP JUMPDEST JUMPDEST DUP2 CALLDATALOAD PUSH2 0x67B DUP5 DUP3 PUSH1 0x20 DUP7 ADD PUSH2 0x614 JUMP JUMPDEST SWAP2 POP POP SWAP3 SWAP2 POP POP JUMP JUMPDEST PUSH1 0x0 PUSH1 0x20 DUP3 DUP5 SUB SLT ISZERO PUSH2 0x69A JUMPI PUSH2 0x699 PUSH2 0x408 JUMP JUMPDEST JUMPDEST PUSH1 0x0 DUP3 ADD CALLDATALOAD PUSH8 0xFFFFFFFFFFFFFFFF DUP2 GT ISZERO PUSH2 0x6B8 JUMPI PUSH2 0x6B7 PUSH2 0x40D JUMP JUMPDEST JUMPDEST PUSH2 0x6C4 DUP5 DUP3 DUP6 ADD PUSH2 0x656 JUMP JUMPDEST SWAP2 POP POP SWAP3 SWAP2 POP POP JUMP JUMPDEST PUSH2 0x6D6 DUP2 PUSH2 0x477 JUMP JUMPDEST DUP3 MSTORE POP POP JUMP JUMPDEST PUSH1 0x0 DUP2 MLOAD SWAP1 POP SWAP2 SWAP1 POP JUMP JUMPDEST PUSH1 0x0 DUP3 DUP3 MSTORE PUSH1 0x20 DUP3 ADD SWAP1 POP SWAP3 SWAP2 POP POP JUMP JUMPDEST PUSH1 0x0 JUMPDEST DUP4 DUP2 LT ISZERO PUSH2 0x716 JUMPI DUP1 DUP3 ADD MLOAD DUP2 DUP5 ADD MSTORE PUSH1 0x20 DUP2 ADD SWAP1 POP PUSH2 0x6FB JUMP JUMPDEST PUSH1 0x0 DUP5 DUP5 ADD MSTORE POP POP POP POP JUMP JUMPDEST PUSH1 0x0 PUSH2 0x72D DUP3 PUSH2 0x6DC JUMP JUMPDEST PUSH2 0x737 DUP2 DUP6 PUSH2 0x6E7 JUMP JUMPDEST SWAP4 POP PUSH2 0x747 DUP2 DUP6 PUSH1 0x20 DUP7 ADD PUSH2 0x6F8 JUMP JUMPDEST PUSH2 0x750 DUP2 PUSH2 0x548 JUMP JUMPDEST DUP5 ADD SWAP2 POP POP SWAP3 SWAP2 POP POP JUMP JUMPDEST PUSH1 0x0 PUSH20 0xFFFFFFFFFFFFFFFFFFFFFFFFFFFFFFFFFFFFFFFF DUP3 AND SWAP1 POP SWAP2 SWAP1 POP JUMP JUMPDEST PUSH1 0x0 PUSH2 0x786 DUP3 PUSH2 0x75B JUMP JUMPDEST SWAP1 POP SWAP2 SWAP1 POP JUMP JUMPDEST PUSH2 0x796 DUP2 PUSH2 0x77B JUMP JUMPDEST DUP3 MSTORE POP POP JUMP JUMPDEST PUSH1 0x0 DUP2 SWAP1 POP SWAP2 SWAP1 POP JUMP JUMPDEST PUSH2 0x7AF DUP2 PUSH2 0x79C JUMP JUMPDEST DUP3 MSTORE POP POP JUMP JUMPDEST PUSH1 0x0 PUSH1 0x80 DUP3 ADD SWAP1 POP PUSH2 0x7CA PUSH1 0x0 DUP4 ADD DUP8 PUSH2 0x6CD JUMP JUMPDEST DUP2 DUP2 SUB PUSH1 0x20 DUP4 ADD MSTORE PUSH2 0x7DC DUP2 DUP7 PUSH2 0x722 JUMP JUMPDEST SWAP1 POP PUSH2 0x7EB PUSH1 0x40 DUP4 ADD DUP6 PUSH2 0x78D JUMP JUMPDEST PUSH2 0x7F8 PUSH1 0x60 DUP4 ADD DUP5 PUSH2 0x7A6 JUMP JUMPDEST SWAP6 SWAP5 POP POP POP POP POP JUMP JUMPDEST PUSH1 0x0 DUP2 SWAP1 POP SWAP3 SWAP2 POP POP JUMP JUMPDEST PUSH1 0x0 PUSH2 0x818 DUP4 DUP6 PUSH2 0x801 JUMP JUMPDEST SWAP4 POP PUSH2 0x825 DUP4 DUP6 DUP5 PUSH2 0x605 JUMP JUMPDEST DUP3 DUP5 ADD SWAP1 POP SWAP4 SWAP3 POP POP POP JUMP JUMPDEST PUSH1 0x0 PUSH2 0x83E DUP3 DUP5 DUP7 PUSH2 0x80C JUMP JUMPDEST SWAP2 POP DUP2 SWAP1 POP SWAP4 SWAP3 POP POP POP JUMP JUMPDEST PUSH32 0x416C72656164792073746F726564000000000000000000000000000000000000 PUSH1 0x0 DUP3 ADD MSTORE POP JUMP JUMPDEST PUSH1 0x0 PUSH2 0x880 PUSH1 0xE DUP4 PUSH2 0x6E7 JUMP JUMPDEST SWAP2 POP PUSH2 0x88B DUP3 PUSH2 0x84A JUMP JUMPDEST PUSH1 0x20 DUP3 ADD SWAP1 POP SWAP2 SWAP1 POP JUMP JUMPDEST PUSH1 0x0 PUSH1 0x20 DUP3 ADD SWAP1 POP DUP2 DUP2 SUB PUSH1 0x0 DUP4 ADD MSTORE PUSH2 0x8AF DUP2 PUSH2 0x873 JUMP JUMPDEST SWAP1 POP SWAP2 SWAP1 POP JUMP JUMPDEST PUSH32 0x4E487B7100000000000000000000000000000000000000000000000000000000 PUSH1 0x0 MSTORE PUSH1 0x22 PUSH1 0x4 MSTORE PUSH1 0x24 PUSH1 0x0 REVERT JUMPDEST PUSH1 0x0 PUSH1 0x2 DUP3 DIV SWAP1 POP PUSH1 0x1 DUP3 AND DUP1 PUSH2 0x8FD JUMPI PUSH1 0x7F DUP3 AND SWAP2 POP JUMPDEST PUSH1 0x20 DUP3 LT DUP2 SUB PUSH2 0x910 JUMPI PUSH2 0x90F PUSH2 0x8B6 JUMP JUMPDEST JUMPDEST POP SWAP2 SWAP1 POP JUMP JUMPDEST PUSH1 0x0 DUP2 SWAP1 POP DUP2 PUSH1 0x0 MSTORE PUSH1 0x20 PUSH1 0x0 KECCAK256 SWAP1 POP SWAP2 SWAP1 POP JUMP JUMPDEST PUSH1 0x0 PUSH1 0x20 PUSH1 0x1F DUP4 ADD DIV SWAP1 POP SWAP2 SWAP1 POP JUMP JUMPDEST PUSH1 0x0 DUP3 DUP3 SHL SWAP1 POP SWAP3 SWAP2 POP POP JUMP JUMPDEST PUSH1 0x0 PUSH1 0x8 DUP4 MUL PUSH2 0x978 PUSH32 0xFFFFFFFFFFFFFFFFFFFFFFFFFFFFFFFFFFFFFFFFFFFFFFFFFFFFFFFFFFFFFFFF DUP3 PUSH2 0x93B JUMP JUMPDEST PUSH2 0x982 DUP7 DUP4 PUSH2 0x93B JUMP JUMPDEST SWAP6 POP DUP1 NOT DUP5 AND SWAP4 POP DUP1 DUP7 AND DUP5 OR SWAP3 POP POP POP SWAP4 SWAP3 POP POP POP JUMP JUMPDEST PUSH1 0x0 DUP2 SWAP1 POP SWAP2 SWAP1 POP JUMP JUMPDEST PUSH1 0x0 PUSH2 0x9BF PUSH2 0x9BA PUSH2 0x9B5 DUP5 PUSH2 0x79C JUMP JUMPDEST PUSH2 0x99A JUMP JUMPDEST PUSH2 0x79C JUMP JUMPDEST SWAP1 POP SWAP2 SWAP1 POP JUMP JUMPDEST PUSH1 0x0 DUP2 SWAP1 POP SWAP2 SWAP1 POP JUMP JUMPDEST PUSH2 0x9D9 DUP4 PUSH2 0x9A4 JUMP JUMPDEST PUSH2 0x9ED PUSH2 0x9E5 DUP3 PUSH2 0x9C6 JUMP JUMPDEST DUP5 DUP5 SLOAD PUSH2 0x948 JUMP JUMPDEST DUP3 SSTORE POP POP POP POP JUMP JUMPDEST PUSH1 0x0 SWAP1 JUMP JUMPDEST PUSH2 0xA02 PUSH2 0x9F5 JUMP JUMPDEST PUSH2 0xA0D DUP2 DUP5 DUP5 PUSH2 0x9D0 JUMP JUMPDEST POP POP POP JUMP JUMPDEST JUMPDEST DUP2 DUP2 LT ISZERO PUSH2 0xA31 JUMPI PUSH2 0xA26 PUSH1 0x0 DUP3 PUSH2 0x9FA JUMP JUMPDEST PUSH1 0x1 DUP2 ADD SWAP1 POP PUSH2 0xA13 JUMP JUMPDEST POP POP JUMP JUMPDEST PUSH1 0x1F DUP3 GT ISZERO PUSH2 0xA76 JUMPI PUSH2 0xA47 DUP2 PUSH2 0x916 JUMP JUMPDEST PUSH2 0xA50 DUP5 PUSH2 0x92B JUMP JUMPDEST DUP2 ADD PUSH1 0x20 DUP6 LT ISZERO PUSH2 0xA5F JUMPI DUP2 SWAP1 POP JUMPDEST PUSH2 0xA73 PUSH2 0xA6B DUP6 PUSH2 0x92B JUMP JUMPDEST DUP4 ADD DUP3 PUSH2 0xA12 JUMP JUMPDEST POP POP JUMPDEST POP POP POP JUMP JUMPDEST PUSH1 0x0 DUP3 DUP3 SHR SWAP1 POP SWAP3 SWAP2 POP POP JUMP JUMPDEST PUSH1 0x0 PUSH2 0xA99 PUSH1 0x0 NOT DUP5 PUSH1 0x8 MUL PUSH2 0xA7B JUMP JUMPDEST NOT DUP1 DUP4 AND SWAP2 POP POP SWAP3 SWAP2 POP POP JUMP JUMPDEST PUSH1 0x0 PUSH2 0xAB2 DUP4 DUP4 PUSH2 0xA88 JUMP JUMPDEST SWAP2 POP DUP3 PUSH1 0x2 MUL DUP3 OR SWAP1 POP SWAP3 SWAP2 POP POP JUMP JUMPDEST PUSH2 0xACB DUP3 PUSH2 0x6DC JUMP JUMPDEST PUSH8 0xFFFFFFFFFFFFFFFF DUP2 GT ISZERO PUSH2 0xAE4 JUMPI PUSH2 0xAE3 PUSH2 0x559 JUMP JUMPDEST JUMPDEST PUSH2 0xAEE DUP3 SLOAD PUSH2 0x8E5 JUMP JUMPDEST PUSH2 0xAF9 DUP3 DUP3 DUP6 PUSH2 0xA35 JUMP JUMPDEST PUSH1 0x0 PUSH1 0x20 SWAP1 POP PUSH1 0x1F DUP4 GT PUSH1 0x1 DUP2 EQ PUSH2 0xB2C JUMPI PUSH1 0x0 DUP5 ISZERO PUSH2 0xB1A JUMPI DUP3 DUP8 ADD MLOAD SWAP1 POP JUMPDEST PUSH2 0xB24 DUP6 DUP3 PUSH2 0xAA6 JUMP JUMPDEST DUP7 SSTORE POP PUSH2 0xB8C JUMP JUMPDEST PUSH1 0x1F NOT DUP5 AND PUSH2 0xB3A DUP7 PUSH2 0x916 JUMP JUMPDEST PUSH1 0x0 JUMPDEST DUP3 DUP2 LT ISZERO PUSH2 0xB62 JUMPI DUP5 DUP10 ADD MLOAD DUP3 SSTORE PUSH1 0x1 DUP3 ADD SWAP2 POP PUSH1 0x20 DUP6 ADD SWAP5 POP PUSH1 0x20 DUP2 ADD SWAP1 POP PUSH2 0xB3D JUMP JUMPDEST DUP7 DUP4 LT ISZERO PUSH2 0xB7F JUMPI DUP5 DUP10 ADD MLOAD PUSH2 0xB7B PUSH1 0x1F DUP10 AND DUP3 PUSH2 0xA88 JUMP JUMPDEST DUP4 SSTORE POP JUMPDEST PUSH1 0x1 PUSH1 0x2 DUP9 MUL ADD DUP9 SSTORE POP POP POP JUMPDEST POP POP POP POP POP POP JUMP JUMPDEST PUSH1 0x0 PUSH2 0xBA0 DUP4 DUP6 PUSH2 0x6E7 JUMP JUMPDEST SWAP4 POP PUSH2 0xBAD DUP4 DUP6 DUP5 PUSH2 0x605 JUMP JUMPDEST PUSH2 0xBB6 DUP4 PUSH2 0x548 JUMP JUMPDEST DUP5 ADD SWAP1 POP SWAP4 SWAP3 POP POP POP JUMP JUMPDEST PUSH1 0x0 PUSH1 0x60 DUP3 ADD SWAP1 POP DUP2 DUP2 SUB PUSH1 0x0 DUP4 ADD MSTORE PUSH2 0xBDC DUP2 DUP7 DUP9 PUSH2 0xB94 JUMP JUMPDEST SWAP1 POP PUSH2 0xBEB PUSH1 0x20 DUP4 ADD DUP6 PUSH2 0x6CD JUMP JUMPDEST PUSH2 0xBF8 PUSH1 0x40 DUP4 ADD DUP5 PUSH2 0x7A6 JUMP JUMPDEST SWAP6 SWAP5 POP POP POP POP POP JUMP INVALID LOG2 PUSH5 0x6970667358 0x22 SLT KECCAK256 SWAP1 0xEB 0xD0 PUSH21 0x93C121E62595CBE536507813286246D5446A9ACA78 0x5D 0xD8 0xE0 0x4B 0xA5 PUSH28 0x4664736F6C6343000811003300000000000000000000000000000000 "},"methodIdentifiers":{"files(string)":"e7755761","store(string,bytes32)":"8a169843","verify(string,bytes32)":"62e9aeba"}}}}}