{
  "_format": "hh-sol-artifact-1",
  "contractName": "FileStorage",
  "sourceName": "contracts/FileStorage.sol",
  "abi": [
    {
      "anonymous": false,
      "inputs": [
        {
          "indexed": false,
          "internalType": "string",
          "name": "cid",
          "type": "string"
        },
        {
          "indexed": false,
          "internalType": "bytes32",
          "name": "hash",
          "type": "bytes32"
        },
        {
          "indexed": true,
          "internalType": "address",
          "name": "uploader",
          "type": "address"
        },
        {
          "indexed": false,
          "internalType": "uint256",
          "name": "ts",
          "type": "uint256"
        }
      ],
      "name": "Stored",
      "type": "event"
    },
    {
      "inputs": [
        {
          "internalType": "string",
          "name": "",
          "type": "string"
        }
      ],
      "name": "files",
      "outputs": [
        {
          "internalType": "bytes32",
          "name": "hash",
          "type": "bytes32"
        },
        {
          "internalType": "string",
          "name": "cid",
          "type": "string"
        },
        {
          "internalType": "address",
          "name": "uploader",
          "type": "address"
        },
        {
          "internalType": "uint256",
          "name": "ts",
          "type": "uint256"
        }
      ],
      "stateMutability": "view",
      "type": "function"
    },
    {
      "inputs": [
        {
          "internalType": "string",
          "name": "cid",
          "type": "string"
        },
        {
          "internalType": "bytes32",
          "name": "hash",
          "type": "bytes32"
        }
      ],
      "name": "store",
      "outputs": [],
      "stateMutability": "nonpayable",
      "type": "function"
    },
    {
      "inputs": [
        {
          "internalType": "string",
          "name": "cid",
          "type": "string"
        },
        {
          "internalType": "bytes32",
          "name": "hash",
          "type": "bytes32"
        }
      ],
      "name": "verify",
      "outputs": [
        {
          "internalType": "bool",
          "name": "",
          "type": "bool"
        }
      ],
      "stateMutability": "view",
      "type": "function"
    }
  ],
  "bytecode": "0x608060405234801561001057600080fd5b50610c37806100206000396000f3fe608060405234801561001057600080fd5b50600436106100415760003560e01c806362e9aeba146100465780638a16984314610076578063e775576114610092575b600080fd5b610060600480360381019061005b91906104ad565b6100c5565b60405161006d9190610528565b60405180910390f35b610090600480360381019061008b91906104ad565b6100f6565b005b6100ac60048036038101906100a79190610684565b610310565b6040516100bc94939291906107b5565b60405180910390f35b600081600085856040516100da929190610831565b9081526020016040518091039020600001541490509392505050565b600073ffffffffffffffffffffffffffffffffffffffff1660008484604051610120929190610831565b908152602001604051809103902060020160009054906101000a900473ffffffffffffffffffffffffffffffffffffffff1673ffffffffffffffffffffffffffffffffffffffff16146101a8576040517f08c379a000000000000000000000000000000000000000000000000000000000815260040161019f90610896565b60405180910390fd5b604051806080016040528082815260200184848080601f016020809104026020016040519081016040528093929190818152602001838380828437600081840152601f19601f8201169050808301925050505050505081526020013373ffffffffffffffffffffffffffffffffffffffff1681526020014281525060008484604051610235929190610831565b90815260200160405180910390206000820151816000015560208201518160010190816102629190610ac2565b5060408201518160020160006101000a81548173ffffffffffffffffffffffffffffffffffffffff021916908373ffffffffffffffffffffffffffffffffffffffff160217905550606082015181600301559050503373ffffffffffffffffffffffffffffffffffffffff167feab8385f341d1b944a1b8f7f6a40af722394d90781589e6a5c6eefca8f4e7b9d848484426040516103039493929190610bc1565b60405180910390a2505050565b60008180516020810182018051848252602083016020850120818352809550505050505060009150905080600001549080600101805461034f906108e5565b80601f016020809104026020016040519081016040528092919081815260200182805461037b906108e5565b80156103c85780601f1061039d576101008083540402835291602001916103c8565b820191906000526020600020905b8154815290600101906020018083116103ab57829003601f168201915b5050505050908060020160009054906101000a900473ffffffffffffffffffffffffffffffffffffffff16908060030154905084565b6000604051905090565b600080fd5b600080fd5b600080fd5b600080fd5b600080fd5b60008083601f84011261043757610436610412565b5b8235905067ffffffffffffffff81111561045457610453610417565b5b6020830191508360018202830111156104705761046f61041c565b5b9250929050565b6000819050919050565b61048a81610477565b811461049557600080fd5b50565b6000813590506104a781610481565b92915050565b6000806000604084860312156104c6576104c5610408565b5b600084013567ffffffffffffffff8111156104e4576104e361040d565b5b6104f086828701610421565b9350935050602061050386828701610498565b9150509250925092565b60008115159050919050565b6105228161050d565b82525050565b600060208201905061053d6000830184610519565b92915050565b600080fd5b6000601f19601f8301169050919050565b7f4e487b7100000000000000000000000000000000000000000000000000000000600052604160045260246000fd5b61059182610548565b810181811067ffffffffffffffff821117156105b0576105af610559565b5b80604052505050565b60006105c36103fe565b90506105cf8282610588565b919050565b600067ffffffffffffffff8211156105ef576105ee610559565b5b6105f882610548565b9050602081019050919050565b82818337600083830152505050565b6000610627610622846105d4565b6105b9565b90508281526020810184848401111561064357610642610543565b5b61064e848285610605565b509392505050565b600082601f83011261066b5761066a610412565b5b813561067b848260208601610614565b91505092915050565b60006020828403121561069a57610699610408565b5b600082013567ffffffffffffffff8111156106b8576106b761040d565b5b6106c484828501610656565b91505092915050565b6106d681610477565b82525050565b600081519050919050565b600082825260208201905092915050565b60005b838110156107165780820151818401526020810190506106fb565b60008484015250505050565b600061072d826106dc565b61073781856106e7565b93506107478185602086016106f8565b61075081610548565b840191505092915050565b600073ffffffffffffffffffffffffffffffffffffffff82169050919050565b60006107868261075b565b9050919050565b6107968161077b565b82525050565b6000819050919050565b6107af8161079c565b82525050565b60006080820190506107ca60008301876106cd565b81810360208301526107dc8186610722565b90506107eb604083018561078d565b6107f860608301846107a6565b95945050505050565b600081905092915050565b60006108188385610801565b9350610825838584610605565b82840190509392505050565b600061083e82848661080c565b91508190509392505050565b7f416c72656164792073746f726564000000000000000000000000000000000000600082015250565b6000610880600e836106e7565b915061088b8261084a565b602082019050919050565b600060208201905081810360008301526108af81610873565b9050919050565b7f4e487b7100000000000000000000000000000000000000000000000000000000600052602260045260246000fd5b600060028204905060018216806108fd57607f821691505b6020821081036109105761090f6108b6565b5b50919050565b60008190508160005260206000209050919050565b60006020601f8301049050919050565b600082821b905092915050565b6000600883026109787fffffffffffffffffffffffffffffffffffffffffffffffffffffffffffffffff8261093b565b610982868361093b565b95508019841693508086168417925050509392505050565b6000819050919050565b60006109bf6109ba6109b58461079c565b61099a565b61079c565b9050919050565b6000819050919050565b6109d9836109a4565b6109ed6109e5826109c6565b848454610948565b825550505050565b600090565b610a026109f5565b610a0d8184846109d0565b505050565b5b81811015610a3157610a266000826109fa565b600181019050610a13565b5050565b601f821115610a7657610a4781610916565b610a508461092b565b81016020851015610a5f578190505b610a73610a6b8561092b565b830182610a12565b50505b505050565b600082821c905092915050565b6000610a9960001984600802610a7b565b1980831691505092915050565b6000610ab28383610a88565b9150826002028217905092915050565b610acb826106dc565b67ffffffffffffffff811115610ae457610ae3610559565b5b610aee82546108e5565b610af9828285610a35565b600060209050601f831160018114610b2c5760008415610b1a578287015190505b610b248582610aa6565b865550610b8c565b601f198416610b3a86610916565b60005b82811015610b6257848901518255600182019150602085019450602081019050610b3d565b86831015610b7f5784890151610b7b601f891682610a88565b8355505b6001600288020188555050505b505050505050565b6000610ba083856106e7565b9350610bad838584610605565b610bb683610548565b840190509392505050565b60006060820190508181036000830152610bdc818688610b94565b9050610beb60208301856106cd565b610bf860408301846107a6565b9594505050505056fea264697066735822122090ebd07493c121e62595cbe536507813286246d5446a9aca785dd8e04ba57b4664736f6c63430008110033",
  "linkReferences": {},
  "deployedLinkReferences": {}
}